{
  "_format": "hh-sol-artifact-1",
  "contractName": "Wallet",
  "sourceName": "contracts/Wallet.sol",
  "abi": [
    {
      "inputs": [],
      "stateMutability": "payable",
      "type": "constructor"
    },
    {
      "inputs": [
        {
          "internalType": "address",
          "name": "_shop",
          "type": "address"
        },
        {
          "internalType": "uint256",
          "name": "_amount",
          "type": "uint256"
        }
      ],
      "name": "buy",
      "outputs": [],
      "stateMutability": "nonpayable",
      "type": "function"
    },
    {
      "inputs": [
        {
          "internalType": "string",
          "name": "a",
          "type": "string"
        },
        {
          "internalType": "string",
          "name": "b",
          "type": "string"
        }
      ],
      "name": "compareStrings",
      "outputs": [
        {
          "internalType": "bool",
          "name": "",
          "type": "bool"
        }
      ],
      "stateMutability": "pure",
      "type": "function"
    },
    {
      "inputs": [
        {
          "internalType": "string",
          "name": "tokenSymbol",
          "type": "string"
        }
      ],
      "name": "getBalance",
      "outputs": [
        {
          "internalType": "uint256",
          "name": "",
          "type": "uint256"
        }
      ],
      "stateMutability": "view",
      "type": "function"
    },
    {
      "inputs": [],
      "name": "getMsgSender",
      "outputs": [
        {
          "internalType": "address",
          "name": "",
          "type": "address"
        }
      ],
      "stateMutability": "view",
      "type": "function"
    },
    {
      "inputs": [
        {
          "internalType": "address",
          "name": "tokenAddress",
          "type": "address"
        }
      ],
      "name": "importToken",
      "outputs": [],
      "stateMutability": "nonpayable",
      "type": "function"
    },
    {
      "inputs": [],
      "name": "ownerWallet",
      "outputs": [
        {
          "internalType": "address payable",
          "name": "",
          "type": "address"
        }
      ],
      "stateMutability": "view",
      "type": "function"
    },
    {
      "inputs": [
        {
          "internalType": "address",
          "name": "_shop",
          "type": "address"
        },
        {
          "internalType": "uint256",
          "name": "_amount",
          "type": "uint256"
        }
      ],
      "name": "sellTokens",
      "outputs": [],
      "stateMutability": "payable",
      "type": "function"
    },
    {
      "inputs": [
        {
          "internalType": "string",
          "name": "tokenSymbol",
          "type": "string"
        },
        {
          "internalType": "address",
          "name": "_to",
          "type": "address"
        },
        {
          "internalType": "uint256",
          "name": "_amount",
          "type": "uint256"
        }
      ],
      "name": "send",
      "outputs": [],
      "stateMutability": "nonpayable",
      "type": "function"
    },
    {
      "inputs": [],
      "name": "shop",
      "outputs": [
        {
          "internalType": "contract OMGShop",
          "name": "",
          "type": "address"
        }
      ],
      "stateMutability": "view",
      "type": "function"
    },
    {
      "inputs": [],
      "name": "token",
      "outputs": [
        {
          "internalType": "contract IERC20",
          "name": "",
          "type": "address"
        }
      ],
      "stateMutability": "view",
      "type": "function"
    },
    {
      "inputs": [
        {
          "internalType": "uint256",
          "name": "_amount",
          "type": "uint256"
        }
      ],
      "name": "withdraw",
      "outputs": [],
      "stateMutability": "nonpayable",
      "type": "function"
    },
    {
      "stateMutability": "payable",
      "type": "receive"
    }
  ],
  "bytecode": "0x60806040526000600460006101000a81548160ff02191690831515021790555033600260006101000a81548173ffffffffffffffffffffffffffffffffffffffff021916908373ffffffffffffffffffffffffffffffffffffffff160217905550306040516200006f906200014a565b6200007b919062000177565b604051809103906000f08015801562000098573d6000803e3d6000fd5b506000806101000a81548173ffffffffffffffffffffffffffffffffffffffff021916908373ffffffffffffffffffffffffffffffffffffffff160217905550604051620000e69062000158565b604051809103906000f08015801562000103573d6000803e3d6000fd5b50600160006101000a81548173ffffffffffffffffffffffffffffffffffffffff021916908373ffffffffffffffffffffffffffffffffffffffff160217905550620001c8565b611a5b806200242a83390190565b612ab88062003e8583390190565b620001718162000194565b82525050565b60006020820190506200018e600083018462000166565b92915050565b6000620001a182620001a8565b9050919050565b600073ffffffffffffffffffffffffffffffffffffffff82169050919050565b61225280620001d86000396000f3fe6080604052600436106100a05760003560e01c80639335dcb7116100645780639335dcb7146101c4578063bed34bba146101ef578063c464fe651461022c578063cb9b61db14610248578063cce7ec1314610271578063fc0c546a1461029a576100da565b80630881fa0d146100df5780632e1a7d4d1461010a5780633a51d2461461013357806350e8e559146101705780637a6ce2e114610199576100da565b366100da573460036040516100b490611a94565b908152602001604051809103902060008282546100d19190611d5c565b92505081905550005b600080fd5b3480156100eb57600080fd5b506100f46102c5565b6040516101019190611b53565b60405180910390f35b34801561011657600080fd5b50610131600480360381019061012c91906117dd565b6102eb565b005b34801561013f57600080fd5b5061015a60048036038101906101559190611688565b6103f8565b6040516101679190611cae565b60405180910390f35b34801561017c57600080fd5b5061019760048036038101906101929190611623565b6104fc565b005b3480156101a557600080fd5b506101ae6106e0565b6040516101bb9190611abe565b60405180910390f35b3480156101d057600080fd5b506101d96106e8565b6040516101e69190611ad9565b60405180910390f35b3480156101fb57600080fd5b5061021660048036038101906102119190611771565b61070e565b6040516102239190611b1d565b60405180910390f35b6102466004803603810190610241919061164c565b610767565b005b34801561025457600080fd5b5061026f600480360381019061026a919061170a565b610bd8565b005b34801561027d57600080fd5b506102986004803603810190610293919061164c565b61107f565b005b3480156102a657600080fd5b506102af611505565b6040516102bc9190611b38565b60405180910390f35b600160009054906101000a900473ffffffffffffffffffffffffffffffffffffffff1681565b600260009054906101000a900473ffffffffffffffffffffffffffffffffffffffff1673ffffffffffffffffffffffffffffffffffffffff163373ffffffffffffffffffffffffffffffffffffffff161461037b576040517f08c379a000000000000000000000000000000000000000000000000000000000815260040161037290611bee565b60405180910390fd5b3373ffffffffffffffffffffffffffffffffffffffff166108fc829081150290604051600060405180830381858888f193505050501580156103c1573d6000803e3d6000fd5b508060036040516103d190611a94565b908152602001604051809103902060008282546103ee9190611db2565b9250508190555050565b6000610439826040518060400160405280600381526020017f455448000000000000000000000000000000000000000000000000000000000081525061070e565b80610497575061047e826040518060400160405280600381526020017f4f4d47000000000000000000000000000000000000000000000000000000000081525061070e565b80156104965750600460009054906101000a900460ff165b5b6104d6576040517f08c379a00000000000000000000000000000000000000000000000000000000081526004016104cd90611c4e565b60405180910390fd5b6003826040516104e69190611a7d565b9081526020016040518091039020549050919050565b600260009054906101000a900473ffffffffffffffffffffffffffffffffffffffff1673ffffffffffffffffffffffffffffffffffffffff163373ffffffffffffffffffffffffffffffffffffffff161461058c576040517f08c379a000000000000000000000000000000000000000000000000000000000815260040161058390611bee565b60405180910390fd5b600073ffffffffffffffffffffffffffffffffffffffff168173ffffffffffffffffffffffffffffffffffffffff1614156105fc576040517f08c379a00000000000000000000000000000000000000000000000000000000081526004016105f390611c0e565b60405180910390fd5b6000600360008054906101000a900473ffffffffffffffffffffffffffffffffffffffff1673ffffffffffffffffffffffffffffffffffffffff166395d89b416040518163ffffffff1660e01b815260040160006040518083038186803b15801561066657600080fd5b505afa15801561067a573d6000803e3d6000fd5b505050506040513d6000823e3d601f19601f820116820180604052508101906106a391906116c9565b6040516106b09190611a7d565b9081526020016040518091039020819055506001600460006101000a81548160ff02191690831515021790555050565b600033905090565b600260009054906101000a900473ffffffffffffffffffffffffffffffffffffffff1681565b6000816040516020016107219190611a7d565b60405160208183030381529060405280519060200120836040516020016107489190611a7d565b6040516020818303038152906040528051906020012014905092915050565b600260009054906101000a900473ffffffffffffffffffffffffffffffffffffffff1673ffffffffffffffffffffffffffffffffffffffff163373ffffffffffffffffffffffffffffffffffffffff16146107f7576040517f08c379a00000000000000000000000000000000000000000000000000000000081526004016107ee90611bee565b60405180910390fd5b6040518060400160405280600381526020017f4f4d470000000000000000000000000000000000000000000000000000000000815250816108da8260008054906101000a900473ffffffffffffffffffffffffffffffffffffffff1673ffffffffffffffffffffffffffffffffffffffff166395d89b416040518163ffffffff1660e01b815260040160006040518083038186803b15801561089857600080fd5b505afa1580156108ac573d6000803e3d6000fd5b505050506040513d6000823e3d601f19601f820116820180604052508101906108d591906116c9565b61070e565b80610920575061091f826040518060400160405280600381526020017f455448000000000000000000000000000000000000000000000000000000000081525061070e565b5b61095f576040517f08c379a000000000000000000000000000000000000000000000000000000000815260040161095690611bce565b60405180910390fd5b806003836040516109709190611a7d565b90815260200160405180910390205410156109c0576040517f08c379a00000000000000000000000000000000000000000000000000000000081526004016109b790611bae565b60405180910390fd5b60008473ffffffffffffffffffffffffffffffffffffffff16846040516024016109ea9190611cae565b6040516020818303038152906040527fe4849b32000000000000000000000000000000000000000000000000000000007bffffffffffffffffffffffffffffffffffffffffffffffffffffffff19166020820180517bffffffffffffffffffffffffffffffffffffffffffffffffffffffff8381831617835250505050604051610a749190611a66565b6000604051808303816000865af19150503d8060008114610ab1576040519150601f19603f3d011682016040523d82523d6000602084013e610ab6565b606091505b5050905080610afa576040517f08c379a0000000000000000000000000000000000000000000000000000000008152600401610af190611c2e565b60405180910390fd5b83600360008054906101000a900473ffffffffffffffffffffffffffffffffffffffff1673ffffffffffffffffffffffffffffffffffffffff166395d89b416040518163ffffffff1660e01b815260040160006040518083038186803b158015610b6357600080fd5b505afa158015610b77573d6000803e3d6000fd5b505050506040513d6000823e3d601f19601f82011682018060405250810190610ba091906116c9565b604051610bad9190611a7d565b90815260200160405180910390206000828254610bca9190611db2565b925050819055505050505050565b600260009054906101000a900473ffffffffffffffffffffffffffffffffffffffff1673ffffffffffffffffffffffffffffffffffffffff163373ffffffffffffffffffffffffffffffffffffffff1614610c68576040517f08c379a0000000000000000000000000000000000000000000000000000000008152600401610c5f90611bee565b60405180910390fd5b8281610d168260008054906101000a900473ffffffffffffffffffffffffffffffffffffffff1673ffffffffffffffffffffffffffffffffffffffff166395d89b416040518163ffffffff1660e01b815260040160006040518083038186803b158015610cd457600080fd5b505afa158015610ce8573d6000803e3d6000fd5b505050506040513d6000823e3d601f19601f82011682018060405250810190610d1191906116c9565b61070e565b80610d5c5750610d5b826040518060400160405280600381526020017f455448000000000000000000000000000000000000000000000000000000000081525061070e565b5b610d9b576040517f08c379a0000000000000000000000000000000000000000000000000000000008152600401610d9290611bce565b60405180910390fd5b80600383604051610dac9190611a7d565b9081526020016040518091039020541015610dfc576040517f08c379a0000000000000000000000000000000000000000000000000000000008152600401610df390611bae565b60405180910390fd5b600073ffffffffffffffffffffffffffffffffffffffff168473ffffffffffffffffffffffffffffffffffffffff161415610e6c576040517f08c379a0000000000000000000000000000000000000000000000000000000008152600401610e6390611c8e565b60405180910390fd5b610eab856040518060400160405280600381526020017f4f4d47000000000000000000000000000000000000000000000000000000000081525061070e565b15610f775760008054906101000a900473ffffffffffffffffffffffffffffffffffffffff1673ffffffffffffffffffffffffffffffffffffffff1663a9059cbb85856040518363ffffffff1660e01b8152600401610f0b929190611af4565b600060405180830381600087803b158015610f2557600080fd5b505af1158015610f39573d6000803e3d6000fd5b5050505082600386604051610f4e9190611a7d565b90815260200160405180910390206000828254610f6b9190611db2565b92505081905550611078565b610fb6856040518060400160405280600381526020017f455448000000000000000000000000000000000000000000000000000000000081525061070e565b1561103c578373ffffffffffffffffffffffffffffffffffffffff166108fc849081150290604051600060405180830381858888f19350505050158015611001573d6000803e3d6000fd5b50826003866040516110139190611a7d565b908152602001604051809103902060008282546110309190611db2565b92505081905550611077565b6040517f08c379a000000000000000000000000000000000000000000000000000000000815260040161106e90611b8e565b60405180910390fd5b5b5050505050565b600260009054906101000a900473ffffffffffffffffffffffffffffffffffffffff1673ffffffffffffffffffffffffffffffffffffffff163373ffffffffffffffffffffffffffffffffffffffff161461110f576040517f08c379a000000000000000000000000000000000000000000000000000000000815260040161110690611bee565b60405180910390fd5b6040518060400160405280600381526020017f4554480000000000000000000000000000000000000000000000000000000000815250816111f28260008054906101000a900473ffffffffffffffffffffffffffffffffffffffff1673ffffffffffffffffffffffffffffffffffffffff166395d89b416040518163ffffffff1660e01b815260040160006040518083038186803b1580156111b057600080fd5b505afa1580156111c4573d6000803e3d6000fd5b505050506040513d6000823e3d601f19601f820116820180604052508101906111ed91906116c9565b61070e565b806112385750611237826040518060400160405280600381526020017f455448000000000000000000000000000000000000000000000000000000000081525061070e565b5b611277576040517f08c379a000000000000000000000000000000000000000000000000000000000815260040161126e90611bce565b60405180910390fd5b806003836040516112889190611a7d565b90815260200160405180910390205410156112d8576040517f08c379a00000000000000000000000000000000000000000000000000000000081526004016112cf90611bae565b60405180910390fd5b600073ffffffffffffffffffffffffffffffffffffffff168473ffffffffffffffffffffffffffffffffffffffff161415611348576040517f08c379a000000000000000000000000000000000000000000000000000000000815260040161133f90611c6e565b60405180910390fd5b60008473ffffffffffffffffffffffffffffffffffffffff168460405161136e90611aa9565b60006040518083038185875af1925050503d80600081146113ab576040519150601f19603f3d011682016040523d82523d6000602084013e6113b0565b606091505b50509050806113f4576040517f08c379a00000000000000000000000000000000000000000000000000000000081526004016113eb90611b6e565b60405180910390fd5b83600360008054906101000a900473ffffffffffffffffffffffffffffffffffffffff1673ffffffffffffffffffffffffffffffffffffffff166395d89b416040518163ffffffff1660e01b815260040160006040518083038186803b15801561145d57600080fd5b505afa158015611471573d6000803e3d6000fd5b505050506040513d6000823e3d601f19601f8201168201806040525081019061149a91906116c9565b6040516114a79190611a7d565b908152602001604051809103902060008282546114c49190611d5c565b925050819055508360036040516114da90611a94565b908152602001604051809103902060008282546114f79190611db2565b925050819055505050505050565b60008054906101000a900473ffffffffffffffffffffffffffffffffffffffff1681565b600061153c61153784611cee565b611cc9565b90508281526020810184848401111561155457600080fd5b61155f848285611e88565b509392505050565b600061157a61157584611cee565b611cc9565b90508281526020810184848401111561159257600080fd5b61159d848285611e97565b509392505050565b6000813590506115b4816121ee565b92915050565b600082601f8301126115cb57600080fd5b81356115db848260208601611529565b91505092915050565b600082601f8301126115f557600080fd5b8151611605848260208601611567565b91505092915050565b60008135905061161d81612205565b92915050565b60006020828403121561163557600080fd5b6000611643848285016115a5565b91505092915050565b6000806040838503121561165f57600080fd5b600061166d858286016115a5565b925050602061167e8582860161160e565b9150509250929050565b60006020828403121561169a57600080fd5b600082013567ffffffffffffffff8111156116b457600080fd5b6116c0848285016115ba565b91505092915050565b6000602082840312156116db57600080fd5b600082015167ffffffffffffffff8111156116f557600080fd5b611701848285016115e4565b91505092915050565b60008060006060848603121561171f57600080fd5b600084013567ffffffffffffffff81111561173957600080fd5b611745868287016115ba565b9350506020611756868287016115a5565b92505060406117678682870161160e565b9150509250925092565b6000806040838503121561178457600080fd5b600083013567ffffffffffffffff81111561179e57600080fd5b6117aa858286016115ba565b925050602083013567ffffffffffffffff8111156117c757600080fd5b6117d3858286016115ba565b9150509250929050565b6000602082840312156117ef57600080fd5b60006117fd8482850161160e565b91505092915050565b61180f81611df8565b82525050565b61181e81611de6565b82525050565b61182d81611e0a565b82525050565b600061183e82611d1f565b6118488185611d35565b9350611858818560208601611e97565b80840191505092915050565b61186d81611e40565b82525050565b61187c81611e64565b82525050565b600061188d82611d2a565b6118978185611d51565b93506118a7818560208601611e97565b80840191505092915050565b60006118c0602383611d40565b91506118cb82611f6a565b604082019050919050565b60006118e3601a83611d40565b91506118ee82611fb9565b602082019050919050565b6000611906601983611d40565b915061191182611fe2565b602082019050919050565b6000611929602183611d40565b91506119348261200b565b604082019050919050565b600061194c601483611d40565b91506119578261205a565b602082019050919050565b600061196f602283611d40565b915061197a82612083565b604082019050919050565b6000611992601b83611d40565b915061199d826120d2565b602082019050919050565b60006119b5600383611d51565b91506119c0826120fb565b600382019050919050565b60006119d8602183611d40565b91506119e382612124565b604082019050919050565b60006119fb600083611d35565b9150611a0682612173565b600082019050919050565b6000611a1e602883611d40565b9150611a2982612176565b604082019050919050565b6000611a41602083611d40565b9150611a4c826121c5565b602082019050919050565b611a6081611e36565b82525050565b6000611a728284611833565b915081905092915050565b6000611a898284611882565b915081905092915050565b6000611a9f826119a8565b9150819050919050565b6000611ab4826119ee565b9150819050919050565b6000602082019050611ad36000830184611815565b92915050565b6000602082019050611aee6000830184611806565b92915050565b6000604082019050611b096000830185611815565b611b166020830184611a57565b9392505050565b6000602082019050611b326000830184611824565b92915050565b6000602082019050611b4d6000830184611864565b92915050565b6000602082019050611b686000830184611873565b92915050565b60006020820190508181036000830152611b87816118b3565b9050919050565b60006020820190508181036000830152611ba7816118d6565b9050919050565b60006020820190508181036000830152611bc7816118f9565b9050919050565b60006020820190508181036000830152611be78161191c565b9050919050565b60006020820190508181036000830152611c078161193f565b9050919050565b60006020820190508181036000830152611c2781611962565b9050919050565b60006020820190508181036000830152611c4781611985565b9050919050565b60006020820190508181036000830152611c67816119cb565b9050919050565b60006020820190508181036000830152611c8781611a11565b9050919050565b60006020820190508181036000830152611ca781611a34565b9050919050565b6000602082019050611cc36000830184611a57565b92915050565b6000611cd3611ce4565b9050611cdf8282611eca565b919050565b6000604051905090565b600067ffffffffffffffff821115611d0957611d08611f2a565b5b611d1282611f59565b9050602081019050919050565b600081519050919050565b600081519050919050565b600081905092915050565b600082825260208201905092915050565b600081905092915050565b6000611d6782611e36565b9150611d7283611e36565b9250827fffffffffffffffffffffffffffffffffffffffffffffffffffffffffffffffff03821115611da757611da6611efb565b5b828201905092915050565b6000611dbd82611e36565b9150611dc883611e36565b925082821015611ddb57611dda611efb565b5b828203905092915050565b6000611df182611e16565b9050919050565b6000611e0382611e16565b9050919050565b60008115159050919050565b600073ffffffffffffffffffffffffffffffffffffffff82169050919050565b6000819050919050565b6000611e4b82611e52565b9050919050565b6000611e5d82611e16565b9050919050565b6000611e6f82611e76565b9050919050565b6000611e8182611e16565b9050919050565b82818337600083830152505050565b60005b83811015611eb5578082015181840152602081019050611e9a565b83811115611ec4576000848401525b50505050565b611ed382611f59565b810181811067ffffffffffffffff82111715611ef257611ef1611f2a565b5b80604052505050565b7f4e487b7100000000000000000000000000000000000000000000000000000000600052601160045260246000fd5b7f4e487b7100000000000000000000000000000000000000000000000000000000600052604160045260246000fd5b6000601f19601f8301169050919050565b7f57616c6c65743a20657468207472616e7366657220746f2073686f702066616960008201527f6c65640000000000000000000000000000000000000000000000000000000000602082015250565b7f646f6573206e6f7420616363657074207468697320746f6b656e000000000000600082015250565b7f57616c6c65743a206e6f7420656e6f75676820746f6b656e7300000000000000600082015250565b7f57616c6c65743a206e6f20737570706f727420666f72207468697320746f6b6560008201527f6e00000000000000000000000000000000000000000000000000000000000000602082015250565b7f57616c6c65743a206e6f7420616e206f776e6572000000000000000000000000600082015250565b7f57616c6c65743a206372656174696f6e2066726f6d207a65726f20616464726560008201527f7373000000000000000000000000000000000000000000000000000000000000602082015250565b7f57616c6c65743a2063616c6c20746f2073686f70206661696c65640000000000600082015250565b7f4554480000000000000000000000000000000000000000000000000000000000600082015250565b7f57616c6c65743a207468697320746f6b656e20646f6573206e6f74206578697360008201527f7400000000000000000000000000000000000000000000000000000000000000602082015250565b50565b7f57616c6c65743a206275792066726f6d20746865207a65726f2061646472657360008201527f73202873686f7029000000000000000000000000000000000000000000000000602082015250565b7f57616c6c65743a2073656e6420746f20746865207a65726f2061646472657373600082015250565b6121f781611de6565b811461220257600080fd5b50565b61220e81611e36565b811461221957600080fd5b5056fea2646970667358221220f93bd86718b39b09bf9ad4ea12319d2f07ad1a8951f55d888f49f95b44f2171164736f6c6343000804003360806040523480156200001157600080fd5b5060405162001a5b38038062001a5b83398181016040528101906200003791906200037e565b6040518060400160405280600881526020017f4f4d47546f6b656e0000000000000000000000000000000000000000000000008152506040518060400160405280600381526020017f4f4d470000000000000000000000000000000000000000000000000000000000815250601268056bc75e2d6310000084336000806101000a81548173ffffffffffffffffffffffffffffffffffffffff021916908373ffffffffffffffffffffffffffffffffffffffff160217905550846003908051906020019062000108929190620002b7565b50836004908051906020019062000121929190620002b7565b50826006819055506200013b82826200014760201b60201c565b505050505050620005a4565b60008054906101000a900473ffffffffffffffffffffffffffffffffffffffff1673ffffffffffffffffffffffffffffffffffffffff163373ffffffffffffffffffffffffffffffffffffffff1614620001d8576040517f08c379a0000000000000000000000000000000000000000000000000000000008152600401620001cf90620003e2565b60405180910390fd5b81600160008373ffffffffffffffffffffffffffffffffffffffff1673ffffffffffffffffffffffffffffffffffffffff168152602001908152602001600020600082825462000229919062000432565b92505081905550816005600082825462000244919062000432565b925050819055508073ffffffffffffffffffffffffffffffffffffffff16600073ffffffffffffffffffffffffffffffffffffffff167fddf252ad1be2c89b69c2b068fc378daa952ba7f163c4a11628f55a4df523b3ef84604051620002ab919062000404565b60405180910390a35050565b828054620002c590620004cd565b90600052602060002090601f016020900481019282620002e9576000855562000335565b82601f106200030457805160ff191683800117855562000335565b8280016001018555821562000335579182015b828111156200033457825182559160200191906001019062000317565b5b50905062000344919062000348565b5090565b5b808211156200036357600081600090555060010162000349565b5090565b60008151905062000378816200058a565b92915050565b6000602082840312156200039157600080fd5b6000620003a18482850162000367565b91505092915050565b6000620003b960158362000421565b9150620003c68262000561565b602082019050919050565b620003dc81620004c3565b82525050565b60006020820190508181036000830152620003fd81620003aa565b9050919050565b60006020820190506200041b6000830184620003d1565b92915050565b600082825260208201905092915050565b60006200043f82620004c3565b91506200044c83620004c3565b9250827fffffffffffffffffffffffffffffffffffffffffffffffffffffffffffffffff0382111562000484576200048362000503565b5b828201905092915050565b60006200049c82620004a3565b9050919050565b600073ffffffffffffffffffffffffffffffffffffffff82169050919050565b6000819050919050565b60006002820490506001821680620004e657607f821691505b60208210811415620004fd57620004fc62000532565b5b50919050565b7f4e487b7100000000000000000000000000000000000000000000000000000000600052601160045260246000fd5b7f4e487b7100000000000000000000000000000000000000000000000000000000600052602260045260246000fd5b7f45524332303a206e6f7420746865206f776e6572210000000000000000000000600082015250565b62000595816200048f565b8114620005a157600080fd5b50565b6114a780620005b46000396000f3fe608060405234801561001057600080fd5b50600436106100cf5760003560e01c806370a082311161008c57806395d89b411161006657806395d89b41146101ec5780639dc29fac1461020a578063a9059cbb14610226578063dd62ed3e14610242576100cf565b806370a08231146101825780638da5cb5b146101b257806394bf804d146101d0576100cf565b806306fdde03146100d4578063095ea7b3146100f2578063104e81ff1461010e57806318160ddd1461012a57806323b872dd14610148578063313ce56714610164575b600080fd5b6100dc610272565b6040516100e99190611097565b60405180910390f35b61010c60048036038101906101079190610efe565b610304565b005b61012860048036038101906101239190610eaf565b610313565b005b6101326103fe565b60405161013f9190611159565b60405180910390f35b610162600480360381019061015d9190610eaf565b610408565b005b61016c61079f565b6040516101799190611159565b60405180910390f35b61019c60048036038101906101979190610e4a565b6107a9565b6040516101a99190611159565b60405180910390f35b6101ba6107f2565b6040516101c7919061107c565b60405180910390f35b6101ea60048036038101906101e59190610f3a565b610816565b005b6101f461097d565b6040516102019190611097565b60405180910390f35b610224600480360381019061021f9190610efe565b610a0f565b005b610240600480360381019061023b9190610efe565b610bc5565b005b61025c60048036038101906102579190610e73565b610d99565b6040516102699190611159565b60405180910390f35b60606003805461028190611289565b80601f01602080910402602001604051908101604052809291908181526020018280546102ad90611289565b80156102fa5780601f106102cf576101008083540402835291602001916102fa565b820191906000526020600020905b8154815290600101906020018083116102dd57829003601f168201915b5050505050905090565b61030f823383610313565b5050565b80600260008573ffffffffffffffffffffffffffffffffffffffff1673ffffffffffffffffffffffffffffffffffffffff16815260200190815260200160002060008473ffffffffffffffffffffffffffffffffffffffff1673ffffffffffffffffffffffffffffffffffffffff168152602001908152602001600020819055508173ffffffffffffffffffffffffffffffffffffffff168373ffffffffffffffffffffffffffffffffffffffff167f6e11fb1b7f119e3f2fa29896ef5fdf8b8a2d0d4df6fe90ba8668e7d8b2ffa25e836040516103f19190611159565b60405180910390a3505050565b6000600554905090565b828180610414836107a9565b1015610455576040517f08c379a000000000000000000000000000000000000000000000000000000000815260040161044c90611139565b60405180910390fd5b600073ffffffffffffffffffffffffffffffffffffffff168573ffffffffffffffffffffffffffffffffffffffff1614156104c5576040517f08c379a00000000000000000000000000000000000000000000000000000000081526004016104bc906110d9565b60405180910390fd5b600073ffffffffffffffffffffffffffffffffffffffff168473ffffffffffffffffffffffffffffffffffffffff161415610535576040517f08c379a000000000000000000000000000000000000000000000000000000000815260040161052c906110b9565b60405180910390fd5b600260008673ffffffffffffffffffffffffffffffffffffffff1673ffffffffffffffffffffffffffffffffffffffff16815260200190815260200160002060008573ffffffffffffffffffffffffffffffffffffffff1673ffffffffffffffffffffffffffffffffffffffff168152602001908152602001600020548311156105f4576040517f08c379a00000000000000000000000000000000000000000000000000000000081526004016105eb90611119565b60405180910390fd5b82600260008773ffffffffffffffffffffffffffffffffffffffff1673ffffffffffffffffffffffffffffffffffffffff16815260200190815260200160002060008673ffffffffffffffffffffffffffffffffffffffff1673ffffffffffffffffffffffffffffffffffffffff168152602001908152602001600020600082825461068091906111e6565b9250508190555082600160008773ffffffffffffffffffffffffffffffffffffffff1673ffffffffffffffffffffffffffffffffffffffff16815260200190815260200160002060008282546106d691906111e6565b9250508190555082600160008673ffffffffffffffffffffffffffffffffffffffff1673ffffffffffffffffffffffffffffffffffffffff168152602001908152602001600020600082825461072c9190611190565b925050819055508373ffffffffffffffffffffffffffffffffffffffff168573ffffffffffffffffffffffffffffffffffffffff167fddf252ad1be2c89b69c2b068fc378daa952ba7f163c4a11628f55a4df523b3ef856040516107909190611159565b60405180910390a35050505050565b6000600654905090565b6000600160008373ffffffffffffffffffffffffffffffffffffffff1673ffffffffffffffffffffffffffffffffffffffff168152602001908152602001600020549050919050565b60008054906101000a900473ffffffffffffffffffffffffffffffffffffffff1681565b60008054906101000a900473ffffffffffffffffffffffffffffffffffffffff1673ffffffffffffffffffffffffffffffffffffffff163373ffffffffffffffffffffffffffffffffffffffff16146108a4576040517f08c379a000000000000000000000000000000000000000000000000000000000815260040161089b906110f9565b60405180910390fd5b81600160008373ffffffffffffffffffffffffffffffffffffffff1673ffffffffffffffffffffffffffffffffffffffff16815260200190815260200160002060008282546108f39190611190565b92505081905550816005600082825461090c9190611190565b925050819055508073ffffffffffffffffffffffffffffffffffffffff16600073ffffffffffffffffffffffffffffffffffffffff167fddf252ad1be2c89b69c2b068fc378daa952ba7f163c4a11628f55a4df523b3ef846040516109719190611159565b60405180910390a35050565b60606004805461098c90611289565b80601f01602080910402602001604051908101604052809291908181526020018280546109b890611289565b8015610a055780601f106109da57610100808354040283529160200191610a05565b820191906000526020600020905b8154815290600101906020018083116109e857829003601f168201915b5050505050905090565b60008054906101000a900473ffffffffffffffffffffffffffffffffffffffff1673ffffffffffffffffffffffffffffffffffffffff163373ffffffffffffffffffffffffffffffffffffffff1614610a9d576040517f08c379a0000000000000000000000000000000000000000000000000000000008152600401610a94906110f9565b60405180910390fd5b818180610aa9836107a9565b1015610aea576040517f08c379a0000000000000000000000000000000000000000000000000000000008152600401610ae190611139565b60405180910390fd5b82600160008673ffffffffffffffffffffffffffffffffffffffff1673ffffffffffffffffffffffffffffffffffffffff1681526020019081526020016000206000828254610b3991906111e6565b925050819055508260056000828254610b5291906111e6565b92505081905550600073ffffffffffffffffffffffffffffffffffffffff168473ffffffffffffffffffffffffffffffffffffffff167fddf252ad1be2c89b69c2b068fc378daa952ba7f163c4a11628f55a4df523b3ef85604051610bb79190611159565b60405180910390a350505050565b338180610bd1836107a9565b1015610c12576040517f08c379a0000000000000000000000000000000000000000000000000000000008152600401610c0990611139565b60405180910390fd5b600073ffffffffffffffffffffffffffffffffffffffff168473ffffffffffffffffffffffffffffffffffffffff161415610c82576040517f08c379a0000000000000000000000000000000000000000000000000000000008152600401610c79906110b9565b60405180910390fd5b82600160003373ffffffffffffffffffffffffffffffffffffffff1673ffffffffffffffffffffffffffffffffffffffff1681526020019081526020016000206000828254610cd191906111e6565b9250508190555082600160008673ffffffffffffffffffffffffffffffffffffffff1673ffffffffffffffffffffffffffffffffffffffff1681526020019081526020016000206000828254610d279190611190565b925050819055508373ffffffffffffffffffffffffffffffffffffffff163373ffffffffffffffffffffffffffffffffffffffff167fddf252ad1be2c89b69c2b068fc378daa952ba7f163c4a11628f55a4df523b3ef85604051610d8b9190611159565b60405180910390a350505050565b6000600260008473ffffffffffffffffffffffffffffffffffffffff1673ffffffffffffffffffffffffffffffffffffffff16815260200190815260200160002060008373ffffffffffffffffffffffffffffffffffffffff1673ffffffffffffffffffffffffffffffffffffffff16815260200190815260200160002054905092915050565b600081359050610e2f81611443565b92915050565b600081359050610e448161145a565b92915050565b600060208284031215610e5c57600080fd5b6000610e6a84828501610e20565b91505092915050565b60008060408385031215610e8657600080fd5b6000610e9485828601610e20565b9250506020610ea585828601610e20565b9150509250929050565b600080600060608486031215610ec457600080fd5b6000610ed286828701610e20565b9350506020610ee386828701610e20565b9250506040610ef486828701610e35565b9150509250925092565b60008060408385031215610f1157600080fd5b6000610f1f85828601610e20565b9250506020610f3085828601610e35565b9150509250929050565b60008060408385031215610f4d57600080fd5b6000610f5b85828601610e35565b9250506020610f6c85828601610e20565b9150509250929050565b610f7f8161121a565b82525050565b6000610f9082611174565b610f9a818561117f565b9350610faa818560208601611256565b610fb381611319565b840191505092915050565b6000610fcb60238361117f565b9150610fd68261132a565b604082019050919050565b6000610fee60258361117f565b9150610ff982611379565b604082019050919050565b600061101160158361117f565b915061101c826113c8565b602082019050919050565b6000611034601b8361117f565b915061103f826113f1565b602082019050919050565b600061105760198361117f565b91506110628261141a565b602082019050919050565b6110768161124c565b82525050565b60006020820190506110916000830184610f76565b92915050565b600060208201905081810360008301526110b18184610f85565b905092915050565b600060208201905081810360008301526110d281610fbe565b9050919050565b600060208201905081810360008301526110f281610fe1565b9050919050565b6000602082019050818103600083015261111281611004565b9050919050565b6000602082019050818103600083015261113281611027565b9050919050565b600060208201905081810360008301526111528161104a565b9050919050565b600060208201905061116e600083018461106d565b92915050565b600081519050919050565b600082825260208201905092915050565b600061119b8261124c565b91506111a68361124c565b9250827fffffffffffffffffffffffffffffffffffffffffffffffffffffffffffffffff038211156111db576111da6112bb565b5b828201905092915050565b60006111f18261124c565b91506111fc8361124c565b92508282101561120f5761120e6112bb565b5b828203905092915050565b60006112258261122c565b9050919050565b600073ffffffffffffffffffffffffffffffffffffffff82169050919050565b6000819050919050565b60005b83811015611274578082015181840152602081019050611259565b83811115611283576000848401525b50505050565b600060028204905060018216806112a157607f821691505b602082108114156112b5576112b46112ea565b5b50919050565b7f4e487b7100000000000000000000000000000000000000000000000000000000600052601160045260246000fd5b7f4e487b7100000000000000000000000000000000000000000000000000000000600052602260045260246000fd5b6000601f19601f8301169050919050565b7f45524332303a207472616e7366657220746f20746865207a65726f206164647260008201527f6573730000000000000000000000000000000000000000000000000000000000602082015250565b7f45524332303a207472616e736665722066726f6d20746865207a65726f20616460008201527f6472657373000000000000000000000000000000000000000000000000000000602082015250565b7f45524332303a206e6f7420746865206f776e6572210000000000000000000000600082015250565b7f45524332303a206e6f7420656e6f75676820616c6c6f77616e63650000000000600082015250565b7f45524332303a206e6f7420656e6f7567682062616c616e636500000000000000600082015250565b61144c8161121a565b811461145757600080fd5b50565b6114638161124c565b811461146e57600080fd5b5056fea2646970667358221220fdf77cee34f81e6436447d218a041ccccd0df96c6fa34b0c5d12ccb580bc9b0664736f6c63430008040033608060405234801561001057600080fd5b503060405161001e906100ca565b61002891906100e7565b604051809103906000f080158015610044573d6000803e3d6000fd5b506000806101000a81548173ffffffffffffffffffffffffffffffffffffffff021916908373ffffffffffffffffffffffffffffffffffffffff16021790555033600160006101000a81548173ffffffffffffffffffffffffffffffffffffffff021916908373ffffffffffffffffffffffffffffffffffffffff160217905550610134565b611a5b806200105d83390190565b6100e181610102565b82525050565b60006020820190506100fc60008301846100d8565b92915050565b600061010d82610114565b9050919050565b600073ffffffffffffffffffffffffffffffffffffffff82169050919050565b610f1980620001446000396000f3fe60806040526004361061004e5760003560e01c80633ccfd60b146102555780637824407f1461026c5780638da5cb5b14610297578063e4849b32146102c2578063fc0c546a146102eb57610250565b366102505760003490506000811161009b576040517f08c379a000000000000000000000000000000000000000000000000000000000815260040161009290610c55565b60405180910390fd5b806100a4610316565b10156100e5576040517f08c379a00000000000000000000000000000000000000000000000000000000081526004016100dc90610bf5565b60405180910390fd5b60008054906101000a900473ffffffffffffffffffffffffffffffffffffffff1673ffffffffffffffffffffffffffffffffffffffff1663a9059cbb33836040518363ffffffff1660e01b8152600401610140929190610b91565b600060405180830381600087803b15801561015a57600080fd5b505af115801561016e573d6000803e3d6000fd5b5050505060008054906101000a900473ffffffffffffffffffffffffffffffffffffffff1673ffffffffffffffffffffffffffffffffffffffff1663095ea7b333836040518363ffffffff1660e01b81526004016101cd929190610b91565b600060405180830381600087803b1580156101e757600080fd5b505af11580156101fb573d6000803e3d6000fd5b505050503373ffffffffffffffffffffffffffffffffffffffff167fc54c8cc1c7525b424ec71b685c00d9355581a280488018c22005332ceb2fd406826040516102459190610cb5565b60405180910390a250005b600080fd5b34801561026157600080fd5b5061026a6103c7565b005b34801561027857600080fd5b50610281610316565b60405161028e9190610cb5565b60405180910390f35b3480156102a357600080fd5b506102ac61055b565b6040516102b99190610b16565b60405180910390f35b3480156102ce57600080fd5b506102e960048036038101906102e49190610940565b610581565b005b3480156102f757600080fd5b506103006108f2565b60405161030d9190610bba565b60405180910390f35b60008060009054906101000a900473ffffffffffffffffffffffffffffffffffffffff1673ffffffffffffffffffffffffffffffffffffffff166370a08231306040518263ffffffff1660e01b81526004016103729190610afb565b60206040518083038186803b15801561038a57600080fd5b505afa15801561039e573d6000803e3d6000fd5b505050506040513d601f19601f820116820180604052508101906103c29190610969565b905090565b600160009054906101000a900473ffffffffffffffffffffffffffffffffffffffff1673ffffffffffffffffffffffffffffffffffffffff163373ffffffffffffffffffffffffffffffffffffffff1614610457576040517f08c379a000000000000000000000000000000000000000000000000000000000815260040161044e90610bd5565b60405180910390fd5b600073ffffffffffffffffffffffffffffffffffffffff16600160009054906101000a900473ffffffffffffffffffffffffffffffffffffffff1673ffffffffffffffffffffffffffffffffffffffff1614156104e9576040517f08c379a00000000000000000000000000000000000000000000000000000000081526004016104e090610c75565b60405180910390fd5b600160009054906101000a900473ffffffffffffffffffffffffffffffffffffffff1673ffffffffffffffffffffffffffffffffffffffff166108fc61052d610316565b9081150290604051600060405180830381858888f19350505050158015610558573d6000803e3d6000fd5b50565b600160009054906101000a900473ffffffffffffffffffffffffffffffffffffffff1681565b60008111801561063957508060008054906101000a900473ffffffffffffffffffffffffffffffffffffffff1673ffffffffffffffffffffffffffffffffffffffff166370a08231336040518263ffffffff1660e01b81526004016105e69190610afb565b60206040518083038186803b1580156105fe57600080fd5b505afa158015610612573d6000803e3d6000fd5b505050506040513d601f19601f820116820180604052508101906106369190610969565b10155b610678576040517f08c379a000000000000000000000000000000000000000000000000000000000815260040161066f90610c35565b60405180910390fd5b8060008054906101000a900473ffffffffffffffffffffffffffffffffffffffff1673ffffffffffffffffffffffffffffffffffffffff1663dd62ed3e33306040518363ffffffff1660e01b81526004016106d4929190610b31565b60206040518083038186803b1580156106ec57600080fd5b505afa158015610700573d6000803e3d6000fd5b505050506040513d601f19601f820116820180604052508101906107249190610969565b1015610765576040517f08c379a000000000000000000000000000000000000000000000000000000000815260040161075c90610c15565b60405180910390fd5b60008054906101000a900473ffffffffffffffffffffffffffffffffffffffff1673ffffffffffffffffffffffffffffffffffffffff166323b872dd3330846040518463ffffffff1660e01b81526004016107c293929190610b5a565b600060405180830381600087803b1580156107dc57600080fd5b505af11580156107f0573d6000803e3d6000fd5b5050505060003373ffffffffffffffffffffffffffffffffffffffff168260405161081a90610ae6565b60006040518083038185875af1925050503d8060008114610857576040519150601f19603f3d011682016040523d82523d6000602084013e61085c565b606091505b50509050806108a0576040517f08c379a000000000000000000000000000000000000000000000000000000000815260040161089790610c95565b60405180910390fd5b3373ffffffffffffffffffffffffffffffffffffffff167fdc0971a41bd3cc3dec88e610438b1a9f0752975bbd80f195baf7b766c0aec03e836040516108e69190610cb5565b60405180910390a25050565b60008054906101000a900473ffffffffffffffffffffffffffffffffffffffff1681565b60008135905061092581610ecc565b92915050565b60008151905061093a81610ecc565b92915050565b60006020828403121561095257600080fd5b600061096084828501610916565b91505092915050565b60006020828403121561097b57600080fd5b60006109898482850161092b565b91505092915050565b61099b81610cfe565b82525050565b6109aa81610cec565b82525050565b6109b981610d3a565b82525050565b60006109cc601483610cdb565b91506109d782610d5e565b602082019050919050565b60006109ef601283610cdb565b91506109fa82610d87565b602082019050919050565b6000610a12601083610cdb565b9150610a1d82610db0565b602082019050919050565b6000610a35601983610cdb565b9150610a4082610dd9565b602082019050919050565b6000610a58601183610cdb565b9150610a6382610e02565b602082019050919050565b6000610a7b602483610cdb565b9150610a8682610e2b565b604082019050919050565b6000610a9e600083610cd0565b9150610aa982610e7a565b600082019050919050565b6000610ac1602283610cdb565b9150610acc82610e7d565b604082019050919050565b610ae081610d30565b82525050565b6000610af182610a91565b9150819050919050565b6000602082019050610b1060008301846109a1565b92915050565b6000602082019050610b2b6000830184610992565b92915050565b6000604082019050610b4660008301856109a1565b610b5360208301846109a1565b9392505050565b6000606082019050610b6f60008301866109a1565b610b7c60208301856109a1565b610b896040830184610ad7565b949350505050565b6000604082019050610ba660008301856109a1565b610bb36020830184610ad7565b9392505050565b6000602082019050610bcf60008301846109b0565b92915050565b60006020820190508181036000830152610bee816109bf565b9050919050565b60006020820190508181036000830152610c0e816109e2565b9050919050565b60006020820190508181036000830152610c2e81610a05565b9050919050565b60006020820190508181036000830152610c4e81610a28565b9050919050565b60006020820190508181036000830152610c6e81610a4b565b9050919050565b60006020820190508181036000830152610c8e81610a6e565b9050919050565b60006020820190508181036000830152610cae81610ab4565b9050919050565b6000602082019050610cca6000830184610ad7565b92915050565b600081905092915050565b600082825260208201905092915050565b6000610cf782610d10565b9050919050565b6000610d0982610d10565b9050919050565b600073ffffffffffffffffffffffffffffffffffffffff82169050919050565b6000819050919050565b6000610d4582610d4c565b9050919050565b6000610d5782610d10565b9050919050565b7f45524332303a206e6f7420746865206f776e6572000000000000000000000000600082015250565b7f4e6f7420656e6f75676820746f6b656e73210000000000000000000000000000600082015250565b7f436865636b20616c6c6f77616e63652100000000000000000000000000000000600082015250565b7f496e636f727265637420616d6f756e7420746f2073656c6c2100000000000000600082015250565b7f4e6f7420656e6f7567682066756e647321000000000000000000000000000000600082015250565b7f546865206f776e65722063616e6e6f7420626520746865207a65726f2061646460008201527f7265737300000000000000000000000000000000000000000000000000000000602082015250565b50565b7f4f4d4753686f703a2063616c6c20746f206d73672e73656e646572206661696c60008201527f6564000000000000000000000000000000000000000000000000000000000000602082015250565b610ed581610d30565b8114610ee057600080fd5b5056fea26469706673582212203a1a3b679fb2cdf04cd3440898bbb787d436eeb6f338abad7589f7153fa6719664736f6c6343000804003360806040523480156200001157600080fd5b5060405162001a5b38038062001a5b83398181016040528101906200003791906200037e565b6040518060400160405280600881526020017f4f4d47546f6b656e0000000000000000000000000000000000000000000000008152506040518060400160405280600381526020017f4f4d470000000000000000000000000000000000000000000000000000000000815250601268056bc75e2d6310000084336000806101000a81548173ffffffffffffffffffffffffffffffffffffffff021916908373ffffffffffffffffffffffffffffffffffffffff160217905550846003908051906020019062000108929190620002b7565b50836004908051906020019062000121929190620002b7565b50826006819055506200013b82826200014760201b60201c565b505050505050620005a4565b60008054906101000a900473ffffffffffffffffffffffffffffffffffffffff1673ffffffffffffffffffffffffffffffffffffffff163373ffffffffffffffffffffffffffffffffffffffff1614620001d8576040517f08c379a0000000000000000000000000000000000000000000000000000000008152600401620001cf90620003e2565b60405180910390fd5b81600160008373ffffffffffffffffffffffffffffffffffffffff1673ffffffffffffffffffffffffffffffffffffffff168152602001908152602001600020600082825462000229919062000432565b92505081905550816005600082825462000244919062000432565b925050819055508073ffffffffffffffffffffffffffffffffffffffff16600073ffffffffffffffffffffffffffffffffffffffff167fddf252ad1be2c89b69c2b068fc378daa952ba7f163c4a11628f55a4df523b3ef84604051620002ab919062000404565b60405180910390a35050565b828054620002c590620004cd565b90600052602060002090601f016020900481019282620002e9576000855562000335565b82601f106200030457805160ff191683800117855562000335565b8280016001018555821562000335579182015b828111156200033457825182559160200191906001019062000317565b5b50905062000344919062000348565b5090565b5b808211156200036357600081600090555060010162000349565b5090565b60008151905062000378816200058a565b92915050565b6000602082840312156200039157600080fd5b6000620003a18482850162000367565b91505092915050565b6000620003b960158362000421565b9150620003c68262000561565b602082019050919050565b620003dc81620004c3565b82525050565b60006020820190508181036000830152620003fd81620003aa565b9050919050565b60006020820190506200041b6000830184620003d1565b92915050565b600082825260208201905092915050565b60006200043f82620004c3565b91506200044c83620004c3565b9250827fffffffffffffffffffffffffffffffffffffffffffffffffffffffffffffffff0382111562000484576200048362000503565b5b828201905092915050565b60006200049c82620004a3565b9050919050565b600073ffffffffffffffffffffffffffffffffffffffff82169050919050565b6000819050919050565b60006002820490506001821680620004e657607f821691505b60208210811415620004fd57620004fc62000532565b5b50919050565b7f4e487b7100000000000000000000000000000000000000000000000000000000600052601160045260246000fd5b7f4e487b7100000000000000000000000000000000000000000000000000000000600052602260045260246000fd5b7f45524332303a206e6f7420746865206f776e6572210000000000000000000000600082015250565b62000595816200048f565b8114620005a157600080fd5b50565b6114a780620005b46000396000f3fe608060405234801561001057600080fd5b50600436106100cf5760003560e01c806370a082311161008c57806395d89b411161006657806395d89b41146101ec5780639dc29fac1461020a578063a9059cbb14610226578063dd62ed3e14610242576100cf565b806370a08231146101825780638da5cb5b146101b257806394bf804d146101d0576100cf565b806306fdde03146100d4578063095ea7b3146100f2578063104e81ff1461010e57806318160ddd1461012a57806323b872dd14610148578063313ce56714610164575b600080fd5b6100dc610272565b6040516100e99190611097565b60405180910390f35b61010c60048036038101906101079190610efe565b610304565b005b61012860048036038101906101239190610eaf565b610313565b005b6101326103fe565b60405161013f9190611159565b60405180910390f35b610162600480360381019061015d9190610eaf565b610408565b005b61016c61079f565b6040516101799190611159565b60405180910390f35b61019c60048036038101906101979190610e4a565b6107a9565b6040516101a99190611159565b60405180910390f35b6101ba6107f2565b6040516101c7919061107c565b60405180910390f35b6101ea60048036038101906101e59190610f3a565b610816565b005b6101f461097d565b6040516102019190611097565b60405180910390f35b610224600480360381019061021f9190610efe565b610a0f565b005b610240600480360381019061023b9190610efe565b610bc5565b005b61025c60048036038101906102579190610e73565b610d99565b6040516102699190611159565b60405180910390f35b60606003805461028190611289565b80601f01602080910402602001604051908101604052809291908181526020018280546102ad90611289565b80156102fa5780601f106102cf576101008083540402835291602001916102fa565b820191906000526020600020905b8154815290600101906020018083116102dd57829003601f168201915b5050505050905090565b61030f823383610313565b5050565b80600260008573ffffffffffffffffffffffffffffffffffffffff1673ffffffffffffffffffffffffffffffffffffffff16815260200190815260200160002060008473ffffffffffffffffffffffffffffffffffffffff1673ffffffffffffffffffffffffffffffffffffffff168152602001908152602001600020819055508173ffffffffffffffffffffffffffffffffffffffff168373ffffffffffffffffffffffffffffffffffffffff167f6e11fb1b7f119e3f2fa29896ef5fdf8b8a2d0d4df6fe90ba8668e7d8b2ffa25e836040516103f19190611159565b60405180910390a3505050565b6000600554905090565b828180610414836107a9565b1015610455576040517f08c379a000000000000000000000000000000000000000000000000000000000815260040161044c90611139565b60405180910390fd5b600073ffffffffffffffffffffffffffffffffffffffff168573ffffffffffffffffffffffffffffffffffffffff1614156104c5576040517f08c379a00000000000000000000000000000000000000000000000000000000081526004016104bc906110d9565b60405180910390fd5b600073ffffffffffffffffffffffffffffffffffffffff168473ffffffffffffffffffffffffffffffffffffffff161415610535576040517f08c379a000000000000000000000000000000000000000000000000000000000815260040161052c906110b9565b60405180910390fd5b600260008673ffffffffffffffffffffffffffffffffffffffff1673ffffffffffffffffffffffffffffffffffffffff16815260200190815260200160002060008573ffffffffffffffffffffffffffffffffffffffff1673ffffffffffffffffffffffffffffffffffffffff168152602001908152602001600020548311156105f4576040517f08c379a00000000000000000000000000000000000000000000000000000000081526004016105eb90611119565b60405180910390fd5b82600260008773ffffffffffffffffffffffffffffffffffffffff1673ffffffffffffffffffffffffffffffffffffffff16815260200190815260200160002060008673ffffffffffffffffffffffffffffffffffffffff1673ffffffffffffffffffffffffffffffffffffffff168152602001908152602001600020600082825461068091906111e6565b9250508190555082600160008773ffffffffffffffffffffffffffffffffffffffff1673ffffffffffffffffffffffffffffffffffffffff16815260200190815260200160002060008282546106d691906111e6565b9250508190555082600160008673ffffffffffffffffffffffffffffffffffffffff1673ffffffffffffffffffffffffffffffffffffffff168152602001908152602001600020600082825461072c9190611190565b925050819055508373ffffffffffffffffffffffffffffffffffffffff168573ffffffffffffffffffffffffffffffffffffffff167fddf252ad1be2c89b69c2b068fc378daa952ba7f163c4a11628f55a4df523b3ef856040516107909190611159565b60405180910390a35050505050565b6000600654905090565b6000600160008373ffffffffffffffffffffffffffffffffffffffff1673ffffffffffffffffffffffffffffffffffffffff168152602001908152602001600020549050919050565b60008054906101000a900473ffffffffffffffffffffffffffffffffffffffff1681565b60008054906101000a900473ffffffffffffffffffffffffffffffffffffffff1673ffffffffffffffffffffffffffffffffffffffff163373ffffffffffffffffffffffffffffffffffffffff16146108a4576040517f08c379a000000000000000000000000000000000000000000000000000000000815260040161089b906110f9565b60405180910390fd5b81600160008373ffffffffffffffffffffffffffffffffffffffff1673ffffffffffffffffffffffffffffffffffffffff16815260200190815260200160002060008282546108f39190611190565b92505081905550816005600082825461090c9190611190565b925050819055508073ffffffffffffffffffffffffffffffffffffffff16600073ffffffffffffffffffffffffffffffffffffffff167fddf252ad1be2c89b69c2b068fc378daa952ba7f163c4a11628f55a4df523b3ef846040516109719190611159565b60405180910390a35050565b60606004805461098c90611289565b80601f01602080910402602001604051908101604052809291908181526020018280546109b890611289565b8015610a055780601f106109da57610100808354040283529160200191610a05565b820191906000526020600020905b8154815290600101906020018083116109e857829003601f168201915b5050505050905090565b60008054906101000a900473ffffffffffffffffffffffffffffffffffffffff1673ffffffffffffffffffffffffffffffffffffffff163373ffffffffffffffffffffffffffffffffffffffff1614610a9d576040517f08c379a0000000000000000000000000000000000000000000000000000000008152600401610a94906110f9565b60405180910390fd5b818180610aa9836107a9565b1015610aea576040517f08c379a0000000000000000000000000000000000000000000000000000000008152600401610ae190611139565b60405180910390fd5b82600160008673ffffffffffffffffffffffffffffffffffffffff1673ffffffffffffffffffffffffffffffffffffffff1681526020019081526020016000206000828254610b3991906111e6565b925050819055508260056000828254610b5291906111e6565b92505081905550600073ffffffffffffffffffffffffffffffffffffffff168473ffffffffffffffffffffffffffffffffffffffff167fddf252ad1be2c89b69c2b068fc378daa952ba7f163c4a11628f55a4df523b3ef85604051610bb79190611159565b60405180910390a350505050565b338180610bd1836107a9565b1015610c12576040517f08c379a0000000000000000000000000000000000000000000000000000000008152600401610c0990611139565b60405180910390fd5b600073ffffffffffffffffffffffffffffffffffffffff168473ffffffffffffffffffffffffffffffffffffffff161415610c82576040517f08c379a0000000000000000000000000000000000000000000000000000000008152600401610c79906110b9565b60405180910390fd5b82600160003373ffffffffffffffffffffffffffffffffffffffff1673ffffffffffffffffffffffffffffffffffffffff1681526020019081526020016000206000828254610cd191906111e6565b9250508190555082600160008673ffffffffffffffffffffffffffffffffffffffff1673ffffffffffffffffffffffffffffffffffffffff1681526020019081526020016000206000828254610d279190611190565b925050819055508373ffffffffffffffffffffffffffffffffffffffff163373ffffffffffffffffffffffffffffffffffffffff167fddf252ad1be2c89b69c2b068fc378daa952ba7f163c4a11628f55a4df523b3ef85604051610d8b9190611159565b60405180910390a350505050565b6000600260008473ffffffffffffffffffffffffffffffffffffffff1673ffffffffffffffffffffffffffffffffffffffff16815260200190815260200160002060008373ffffffffffffffffffffffffffffffffffffffff1673ffffffffffffffffffffffffffffffffffffffff16815260200190815260200160002054905092915050565b600081359050610e2f81611443565b92915050565b600081359050610e448161145a565b92915050565b600060208284031215610e5c57600080fd5b6000610e6a84828501610e20565b91505092915050565b60008060408385031215610e8657600080fd5b6000610e9485828601610e20565b9250506020610ea585828601610e20565b9150509250929050565b600080600060608486031215610ec457600080fd5b6000610ed286828701610e20565b9350506020610ee386828701610e20565b9250506040610ef486828701610e35565b9150509250925092565b60008060408385031215610f1157600080fd5b6000610f1f85828601610e20565b9250506020610f3085828601610e35565b9150509250929050565b60008060408385031215610f4d57600080fd5b6000610f5b85828601610e35565b9250506020610f6c85828601610e20565b9150509250929050565b610f7f8161121a565b82525050565b6000610f9082611174565b610f9a818561117f565b9350610faa818560208601611256565b610fb381611319565b840191505092915050565b6000610fcb60238361117f565b9150610fd68261132a565b604082019050919050565b6000610fee60258361117f565b9150610ff982611379565b604082019050919050565b600061101160158361117f565b915061101c826113c8565b602082019050919050565b6000611034601b8361117f565b915061103f826113f1565b602082019050919050565b600061105760198361117f565b91506110628261141a565b602082019050919050565b6110768161124c565b82525050565b60006020820190506110916000830184610f76565b92915050565b600060208201905081810360008301526110b18184610f85565b905092915050565b600060208201905081810360008301526110d281610fbe565b9050919050565b600060208201905081810360008301526110f281610fe1565b9050919050565b6000602082019050818103600083015261111281611004565b9050919050565b6000602082019050818103600083015261113281611027565b9050919050565b600060208201905081810360008301526111528161104a565b9050919050565b600060208201905061116e600083018461106d565b92915050565b600081519050919050565b600082825260208201905092915050565b600061119b8261124c565b91506111a68361124c565b9250827fffffffffffffffffffffffffffffffffffffffffffffffffffffffffffffffff038211156111db576111da6112bb565b5b828201905092915050565b60006111f18261124c565b91506111fc8361124c565b92508282101561120f5761120e6112bb565b5b828203905092915050565b60006112258261122c565b9050919050565b600073ffffffffffffffffffffffffffffffffffffffff82169050919050565b6000819050919050565b60005b83811015611274578082015181840152602081019050611259565b83811115611283576000848401525b50505050565b600060028204905060018216806112a157607f821691505b602082108114156112b5576112b46112ea565b5b50919050565b7f4e487b7100000000000000000000000000000000000000000000000000000000600052601160045260246000fd5b7f4e487b7100000000000000000000000000000000000000000000000000000000600052602260045260246000fd5b6000601f19601f8301169050919050565b7f45524332303a207472616e7366657220746f20746865207a65726f206164647260008201527f6573730000000000000000000000000000000000000000000000000000000000602082015250565b7f45524332303a207472616e736665722066726f6d20746865207a65726f20616460008201527f6472657373000000000000000000000000000000000000000000000000000000602082015250565b7f45524332303a206e6f7420746865206f776e6572210000000000000000000000600082015250565b7f45524332303a206e6f7420656e6f75676820616c6c6f77616e63650000000000600082015250565b7f45524332303a206e6f7420656e6f7567682062616c616e636500000000000000600082015250565b61144c8161121a565b811461145757600080fd5b50565b6114638161124c565b811461146e57600080fd5b5056fea2646970667358221220fdf77cee34f81e6436447d218a041ccccd0df96c6fa34b0c5d12ccb580bc9b0664736f6c63430008040033",
  "linkReferences": {},
  "deployedLinkReferences": {}
}